:020000040800F2
:10000000A824002079020008192F0008F32900080D
:10001000792C000835090008E953000800000000A9
:100020000000000000000000000000003731000860
:10003000190A0008000000003531000839320008B4
:10004000930200089302000893020008930200083C
:10005000930200089302000893020008930200082C
:10006000930200089302000893020008930200081C
:10007000930200089302000893020008930200080C
:1000800093020008930200089302000893020008FC
:1000900093020008930200089302000893020008EC
:1000A00093020008930200089302000893020008DC
:1000B000DD32000893020008930200089302000852
:1000C00093020008930200089302000893020008BC
:1000D00093020008213800089302000893020008E8
:1000E000930200089302000893020008930200089C
:1000F000930200089302000893020008930200088C
:10010000930200089302000893020008930200087B
:10011000930200089302000893020008930200086B
:10012000930200089302000893020008930200085B
:10013000930200089302000893020008930200084B
:100140009302000893020008930200081D2F000884
:10015000930200089302000893020008930200082B
:10016000930200089302000893020008930200081B
:1001700093020008930200089302000800000000A8
:10018000930200089302000800F002F800F065F8FE
:100190000AA090E8000C82448344AAF10107DA45E2
:1001A00001D100F05AF8AFF2090EBAE80F0013F0CF
:1001B000010F18BFFB1A43F00103184774730000C6
:1001C000947300000A444FF0000C10F8013B13F048
:1001D000070408BF10F8014B1D1108BF10F8015BA0
:1001E000641E05D010F8016B641E01F8016BF9D193
:1001F00013F0080F1EBF10F8014BAD1C0C1B09D1EA
:100200006D1E58BF01F801CBFAD505E014F8016B5B
:1002100001F8016B6D1EF9D59142D6D370470000ED
:100220000023002400250026103A28BF78C1FBD8FF
:10023000520728BF30C148BF0B607047732900F0D8
:10024000C882002070471FB507F09BF89DE80300A7
:1002500000F04EFA1FBD10B510BD00F0E9FA1146CE
:10026000FFF7F1FF05F0F0FF00F007FB03B4FFF725
:10027000F2FF03BC00F038FB0948804709480047FB
:10028000FEE7FEE7FEE7FEE7FEE7FEE7FEE7FEE746
:10029000FEE7FEE704480549054A064B70470000A3
:1002A000CD32000889010008A8180020A8240020E9
:1002B000A8200020A820002070B5064600F0FCF918
:1002C000056806F10B0020F00704B4429CBF002033
:1002D00070BD2B466A68BAB11068A04210D304F111
:1002E000080188423CBF5068586007D35168101914
:1002F00041601168091B016058601460101D70BDD9
:1003000013465268002AE7D12146284600F0DCF95E
:100310000028DED170BD70B50446051F00F0CCF991
:100320000068002C14BF446870BD002C18BFAC429C
:100330003CBF20466468F8D301680A18AA4218BF77
:10034000456003D12A6805461144016028684119B7
:10035000A1421CBF6C6070BD61686960216808447F
:10036000286070BD53EA020C00F069802DE9F04B63
:100370004FF00006002B1FBFB3FA83F503FA05F414
:1003800024FA05F65E4012BF1643B2FA82F502FA6D
:1003900005F4C5F120051EBF22FA05FC44EA0C0451
:1003A000203556EA044C4FEA144418BF641C4FF041
:1003B00000084FF00009904271EB030C39D300297B
:1003C00019BFB1FA81F701FA07F6B0FA80F700FA1F
:1003D00007F6C7F120071EBF20FA07FC46EA0C0605
:1003E0002037B6FBF4FCA7EB0507103F07F01F0B07
:1003F000CBF120060CFA0BFB2CFA06F644BFB346F1
:100400000026202FA4BF5E464FF0000B5BEA060CCF
:1004100008BF4FF0010B19EB0B09ABFB027C48EB5B
:100420000608C01B06FB02CC0BFB03CC71EB0C01D6
:10043000C1E70B46024641464846BDE8F08B13B57E
:100440004FF000004FF00001AFF30080BDE81C400A
:10045000704700000FB41CB5074B06AA7B446946E1
:100460000090059800F08BF90020694600F09AF999
:100470001CBC5DF814FB0000450300002DE9F041B1
:100480000E460446002020622046E168884730B3CB
:10049000252805D0D4E901219047206A401CF2E7C5
:1004A000E168204600278847050018D0A5F14100E3
:1004B000192802D820354FF40067324629462046D5
:1004C0002760FFF7BBFE40B1012804D0F61D26F0DF
:1004D00007060836D8E7361DD6E72846DAE7206A49
:1004E000BDE8F08170B50C460546012A05D0287894
:1004F000800600D5EA69002302E0012305E05B1CC9
:10050000934202D2E05C0028F9D1A869E618C01A2B
:10051000A861286A184428622846AFF3008004E0E6
:10052000D5E9012114F8010B9047B442F8D32846CD
:10053000AFF3008070BD10B5431C02E010F8011B42
:1005400071B18107FAD14FF0013202C88C1A8C4385
:1005500014EAC211F9D0C01A0A0603D0C01E10BD99
:10056000C01A10BD0A0401D0801E10BD0902FCD0C3
:10057000401E10BD032A40F2308010F0030C00F042
:10058000158011F8013BBCF1020F624498BF11F8CD
:1005900001CB00F8013B38BF11F8013BA2F1040286
:1005A00098BF00F801CB38BF00F8013B11F00303FE
:1005B00000F02580083AC0F0088051F8043B083A62
:1005C00051F804CBA0E80810F5E7121D5CBF51F804
:1005D000043B40F8043BAFF30080D20724BF11F87E
:1005E000013B11F801CB48BF11F8012B24BF00F8E3
:1005F000013B00F801CB48BF00F8012B704710B554
:10060000203AC0F00B80B1E81850203AA0E818500A
:10061000B1E81850A0E81850BFF4F5AF5FEA027CCB
:1006200024BFB1E81850A0E8185044BF18C918C03A
:10063000BDE810405FEA827C24BF51F8043B40F8DB
:10064000043B08BF7047D20728BF31F8023B48BFC0
:1006500011F8012B28BF20F8023B48BF00F8012BFE
:1006600070474FF0000200B5134694469646203975
:1006700022BFA0E80C50A0E80C50B1F12001BFF45B
:10068000F7AF090728BFA0E80C5048BF0CC05DF8C1
:1006900004EB890028BF40F8042B08BF704748BF0F
:1006A00020F8022B11F0804F18BF00F8012B704783
:1006B0007047704770470000004870474C18002092
:1006C000704770477047704738B504460A460020A7
:1006D0006946AFF30080002808BF38BD0246009984
:1006E000204600F083F8012038BD012000F098B8C2
:1006F000F8B5AFF30080054600200C46102000BF7F
:100700000646A819A0420DD9324669460020AFF32B
:100710000080070008BF00F083F80098A04218BFCF
:100720000546C419FFF7C8FF05600746F01D20F015
:1007300007004619284600F00AF8B44208BFF8BD81
:10074000A21B31463868BDE8F84000F04FB80021E0
:100750000160C0E9011070471020704710B500F02B
:1007600041F8006810BD10B5044600F03BF8046085
:1007700010BD000001694A1C02610878704700B58D
:100780008FB0CDE901310021059105497944CDE9CA
:10079000031011466846FFF771FE0FB000BD000060
:1007A000E5FFFFFF0A6802F8010B0A60704710B509
:1007B000436913B1AFF3008001E0FFF793FE01201E
:1007C00010BD127800F124010A7000224A70012243
:1007D000EDE711684FF0FF32E9E70000004870478D
:1007E0004418002000487047441800200346406821
:1007F0008C46002818BF88423CBF03464068F8D3A7
:1008000018681844884207D00CF1030020F0070054
:10081000001D411A521A0146081D0A60FFF77BBDF0
:1008200010B500F039F8BDE8104000F02FB870475F
:100830007546FFF7D3FFAE4605006946534620F0E4
:100840000700854618B020B5FFF724FDBDE820401D
:100850004FF000064FF000074FF000084FF0000B7C
:1008600021F00701AC46ACE8C009ACE8C009ACE82F
:10087000C009ACE8C0098D46704710B50446AFF317
:1008800000802046BDE81040FFF7F0BC002801D0F2
:1008900000F02AB87047000010B5012805D00021EB
:1008A00003A000F027F8012010BD09A1F8E700001F
:1008B00053494752544D454D3A204F7574206F6649
:1008C0002068656170206D656D6F727900000000B1
:1008D0003A2048656170206D656D6F727920636F95
:1008E000727275707465640001491820ABBEFEE732
:1008F0002600020070B505460C460A2000E06D1C7B
:1009000000F011F835B128780028F8D102E0641C15
:1009100000F009F814B120780028F8D1BDE8704043
:100920000A20AFF3008008B569468DF80000032067
:10093000ABBE08BDFEE700207047002070470000F6
:1009400010B500220549064803F050F90349044850
:10095000123903F03EF9002010BD000006110020FE
:10096000180C002010B50C4601460A4803F031F976
:10097000084803F007F922684AB107490748FFF71A
:10098000F9FD064802F0F2FB05490120087000203D
:1009900010BD0000180C0020F4100020E80A002010
:1009A0001800002000207047094A10B5D2F8BC2278
:1009B000D2F814220AB1012010BD0A4601460448AB
:1009C00003F014F9BDE81040014803F089B90000B4
:1009D000180C00204FF4A56148434FF4B471B0FBEC
:1009E000F1F000EE100AB8EE400ABCEEC00A10EEBC
:1009F000100A80B270474FF4B47148434FF4A561B8
:100A0000B0FBF1F000EE100AB8EE400ABCEEC00AEE
:100A100010EE100A80B27047704772B6FEE72DE9FB
:100A2000F0410446876D00F065F9064694F83500FC
:100A30000025022806D08020606584F8345001200B
:100A4000BDE8F0812068016821F01601016020688E
:100A5000416921F080014161206C08B9A06C20B18E
:100A60002068016821F0080101602068016821F018
:100A7000010101600CE000F03DF9801B052807D959
:100A800020206065032084F8350084F83450D7E7CF
:100A900020680068C007EED194F85C103F208840C1
:100AA000B860012084F8350084F834500020C7E78E
:100AB00090F83510022903D080214165012070474C
:100AC000052180F835100068016821F001010160FE
:100AD0000020704770B5044600F00CF90546601C14
:100AE00002D004480078044400F004F9401BA042FE
:100AF000FAD370BDA00000202DE9F84FDFF8BCA1AB
:100B00000022012503264FF00F090AF1040BAAF178
:100B1000040E00BF0B6805FA02F42340A34270D113
:100B20000F7907F00307012F01D0022F16D1876834
:100B30004FEA420806FA08FC27EA0C07D1F80CC075
:100B40000CFA08FC4CEA070CC0F808C04768A74339
:100B50000C79C4F3001494403C4344600C79E443A2
:100B6000A4070AD0C4684FEA420C06FA0CF7BC434B
:100B70008F6807FA0CF72743C7600C7904F0030469
:100B8000022C12D1D40800EB840CDCF8204057076B
:100B9000FF0E09FA07F824EA0804D1F8108008FAD1
:100BA00007F848EA0408CCF8208004684FEA420CB1
:100BB00006FA0CF7BC430F7907F0030707FA0CF7A6
:100BC000274307604C6814F4403F70D03C4C2768C2
:100BD00047F480472760246822F0030704F4804428
:100BE0000094384C07EB040CDCF8084897074FEAF0
:100BF000177809FA08F7BC43334FB84202D10027EF
:100C000024E054E0314FB84201D101271EE0304FBB
:100C1000B84201D1022719E02E4FB84201D1032773
:100C200014E02D4FB84201D104270FE02B4FB842FA
:100C300001D105270AE02A4FB84201D1062705E075
:100C4000284FB84201D1072700E0082707FA08F724
:100C50002743CCF80878DAF800405746D1F804C0AA
:100C60009C435FEACC2C00D51C433C60DBF8004081
:100C70005F46D1F804C09C435FEA8C2C00D51C432E
:100C80003C60DEF800407746D1F804C09C435FEA40
:100C90008C3C00D51C433C60084F083F3C68D1F8B1
:100CA00004C09C435FEACC3C00D51C433C60521C12
:100CB000102AFFF42FAFBDE8F88F0000083C014078
:100CC000443802400030014000000240000402406D
:100CD00000080240000C02400010024000140240D4
:100CE00000180240001C02400AB1816170470904EB
:100CF000FBE700000148806870470000A00000206A
:100D0000024881680278114481607047A000002089
:100D10000B4810B5016841F400710160016841F4AD
:100D200080610160016841F480710160032000F07E
:100D30006FF80F2000F006F800F024F8002010BD36
:100D4000003C024070B50D4D04464FF47A7128788E
:100D5000B1FBF0F00A490968B1FBF0F001F04AF884
:100D600048B9102C07D200222146501E00F030F85E
:100D700000206C6070BD012070BD0000A00000204C
:100D8000AC0000200A4808B5016841F480410160C8
:100D9000006800F4804000900548001F016841F0A1
:100DA00080510160006800F08050009008BD000094
:100DB00044380240002809DB00F01F020121914065
:100DC0004009800000F1E020C0F8001170470000E9
:100DD000F0B40E4B1B680C46C3F30223C3F10705A6
:100DE000042D00D90425191D072901D2002300E094
:100DF000DB1E012606FA05F1491E214099409E405E
:100E0000761E16403143F0BC04F007BB0CED00E049
:100E1000064900F0070208684FF6FF03184040EA51
:100E20000220034A10430860704700000CED00E008
:100E30000000FA0570470068416200207047F0B575
:100E40000368586A39B19C6A4FF4827600EB144407
:100E500000204D1E0AE040EA024098620FE006EBD7
:100E60008007DF59401C04EB1744C0B2A842F6D3F8
:100E700044EA02404FF4807202EB81015850002096
:100E8000F0BDD0F8080503F0B1B901EBC10200EBE9
:100E90008202D0F80805D26C03F006B901EBC1025A
:100EA00000EB8202D0F80805D2F88C2203F057B983
:100EB000D0F8080503F09CB90A0601F00F0101EB18
:100EC000C10100EB810101D53C3101E001F51F7149
:100ED000006804F0D1B870B504460B0601F00F00AD
:100EE00000EBC00104EB81014FF001024FF000055F
:100EF00003D581F83D203C3103E081F87D5201F5B6
:100F00001F71087094F8BC04012808D084F8BC2430
:100F1000206803F06BFD84F8BC54002070BD0220F3
:100F200070BD70B5044601F00F006268904201D9AF
:100F3000012070BD0B0601F00F0101EBC10104EBB4
:100F400081014FF001024FF0000503D581F83D20EB
:100F50003C3103E081F87D5201F51F718D700870FE
:100F600094F8BC04012808D084F8BC24206803F05D
:100F700039FF84F8BC54002070BD022070BD01F020
:100F80000F0101EBC10100EB8100D0F89C0270471A
:100F90002DE9F04104460F0601F00F0000EBC001FF
:100FA00004EB81014FF001064FF0000503D581F8F5
:100FB0003D603C3103E081F87D5201F51F710870FE
:100FC000CA600B714A7802B10881022B00D14D71C1
:100FD00094F8BC04012809D084F8BC64206803F0AC
:100FE0005DFC284684F8BC54BDE8F0810220FBE794
:100FF00070B50C4601F00F0505EBC50100EB810152
:10100000C1F89432C1F88C220023C1F89C3281F8D7
:101010007D3281F87C52036901F51F71012B00D1EB
:101020004A612207027C006803D003F033FF0020EE
:1010300070BD03F01DFEFAE770B504460D4601F0E1
:101040000F006168884201D9012070BD29064FF068
:1010500000064FF0010207D500EBC00104EB81014F
:1010600081F83D203C3107E005EBC50104EB81012F
:1010700081F87D6201F51F718A70087094F8BC04D4
:10108000012807D084F8BC24206803F0D7FE280785
:1010900002D007E0022070BD217C04F2C442206827
:1010A00003F074FE84F8BC64002070BD70B50C467B
:1010B00001F00F0505EBC50100EB81014B65CA642A
:1010C0000023CB65012381F83D3001F83C5F0369C3
:1010D000012B00D14A612207027C006803D003F093
:1010E000D9FE002070BD03F0C3FDFAE72DE9FC5FD7
:1010F00005680446284604F060F800287DD1206881
:1011000004F087F8002878D0D5F80808C0F30D203F
:10111000C4F8FC04206804F07CF8800704D520683B
:10112000416901F002014161206804F072F8C106D2
:1011300004F2C440009034D52068816921F0100188
:1011400081612F6A07F00F0000EBC00004EB8006FE
:10115000C7F3434006F51F76022802D0062811D0B7
:101160001AE047F6F070074216D0C7F30A12174686
:101170002846316904F051F8306938443061306AEA
:10118000384408E008222846009904F046F8306AFE
:10119000C7F30A11084430622068816941F01001E8
:1011A0008161206804F035F800034FF0080B4FF020
:1011B000000A4FF001097CD50026206804F008F8E9
:1011C000074674E0F80770D0F1B2206804F019F80F
:1011D0008046C00707D005EB4611C1F8089B314691
:1011E000204601F0A1FE5FEA087024D505EB461108
:1011F000C1F808BB2068016C00E025E200EB461056
:101200000191D0F8082BFC4B994205D9110403D564
:101210004FF40041C0F8081B204600F005FBF649DA
:101220000198884207D92069012804D1206801214A
:10123000009A03F0ABFD5FEAC86004D505EB4611E8
:101240001020C1F8080B5FEA88701DD56869000698
:1012500005D5D5F8040840F48061C5F8041806EBFC
:10126000C60004EB800090F87F1200F51F70012982
:1012700005D180F803A0F1B2204600F0EBF905EBB0
:1012800046110220C1F8080B5FEA886004D505EB1F
:1012900046102021C0F8081B5FEA884005D505EB01
:1012A00046104FF40051C0F8081B7F08761C002F31
:1012B00088D1206803F0ADFF40036FD5206803F0AC
:1012C00080FF0746002667E0F80763D0F1B2206888
:1012D00003F085FF8046C00723D006F00F0209FA0D
:1012E00002F0D5F834288243C5F8342805EB4610BF
:1012F000C0F80899206901280FD106EBC60004EB5D
:101300008000D0E912211144C16436B9606D20B962
:1013100020680121009A03F039FDF1B22046FFF761
:10132000B4FD5FEA087003D505EB4611C1F808B9B2
:101330005FEAC86004D505EB46111020C1F8080922
:101340005FEA486004D505EB46104021C0F8081953
:101350005FEA887017D53146284603F001FF06EB97
:10136000C60004EB800090F83F103C30012905D105
:1013700080F803A0F1B2204600F068F905EB4611B1
:101380000220C1F808095FEA086003D5314620460B
:1013900001F030FE7F08761C002F95D1206803F005
:1013A00038FF002811DAD5F8040820F00101C5F84B
:1013B000041894F8F40401282BD0204600F018FA01
:1013C0002068416901F000414161206803F021FF7C
:1013D00000050BD5D5F80808C00702D0204600F05C
:1013E0004BFA2068416901F400614161206803F013
:1013F00010FFC00466D5D5F8040820F00100C5F838
:1014000004081021206803F0ABFE00214FF67F3264
:101410001FE084F8F4A400212046FFF70BFDCFE77E
:1014200005EB4110C0F80829D0F8003923F4001367
:10143000C0F80039C0F8082BD0F8003B23F40013A3
:10144000C0F8003BD0F8003B43F00063C0F8003B1D
:10145000491C60688842E3D8D5F81C0840F00111A7
:10146000C5F81C18206B002828460DD0D0F8840839
:1014700040F00B01C5F88418D5F8440840F00B0182
:101480002846C5F844180DE0D0F8140842F22B01A4
:101490000843C5F81408D5F8100840F00B01284699
:1014A000C5F81018D0F8000820F4FE61C5F800183F
:1014B000217C2068009A03F069FC2068416901F4EE
:1014C00080514161206803F0A4FE800415D5206896
:1014D00003F024FA206803F063FEE06000F07EFA77
:1014E0000146227B206803F0F7FE204600F06AF9EF
:1014F0002068416901F400514161206803F089FED0
:10150000000707D5204600F077F92068416901F00F
:1015100008014161206803F07CFE000616D5A86929
:1015200020F08000A86101260DE000BF06EBC60098
:1015300004EB800090F87F02012803D1F1B220462D
:10154000FFF7BAFC761C6068B042EFD8206803F061
:1015500060FEC00221D501264F4616E005EB46107D
:10156000D0F8001906EBC60004EB800090F840208C
:10157000012A09D1002907DA80F83F70F0B240F063
:1015800080012046FFF798FC761C6068B042E5D8E1
:101590002068416901F480114161206803F039FE3F
:1015A000800234D501204B4629E000BF05EB4011F5
:1015B000D1F8001B00EBC00204EB820696F88022F3
:1015C000012A1BD1002919DA94F8FC2401F4803196
:1015D00002F00102914211D186F87F32A96941F0EF
:1015E0008002AA616969090608D4D5F8040840F4A4
:1015F0000070C5F8040805E00A30544F401C6168CB
:101600008142D3D82068416901F40011416120680A
:1016100003F0FFFD400007D52046FFF732FC2068AD
:10162000416901F080414161206803F0F2FD40070B
:101630000AD520684568680702D52046FFF738FCC0
:101640002068416829434160BDE8FC9FD0F8080547
:1016500002F022BED0F8080502F032BE2DE9F041BA
:101660008AB0040005D094F8BD042668002520B196
:1016700008E001200AB0BDE8F08184F8BC5420469F
:1016800000F05EF8032084F8BD04F06BC00500D4C0
:101690002561206803F0E6FA04F11001282288464B
:1016A0006846FEF7ACFF94E80F0003F045F9022608
:1016B000C8BB0021206803F0CFFD002001270EE009
:1016C00000EBC00104EB810181F83D7001F83C0F93
:1016D00008810D71CD600D61401CC0B28D616168E3
:1016E0008142EDD8002011E000EBC00104EB810144
:1016F00081F87D5281F87C0281F88052C1F88852CD
:10170000C1F88C52401CC0B2C1F894526168814249
:10171000EAD8282241466846FEF771FF94E80F0098
:1017200003F0E6F910B184F8BD64A2E784F83850FC
:1017300084F8BD74206803F0CDF900209AE700001A
:1017400010B586B0044614216846FEF78AFF20686B
:10175000B0F1A04F2FD119480021026842F00102D8
:101760000260006800F0010005904FF4C050009046
:101770000220CDE90101032003900A20049069466C
:101780000F48FFF7B9F90D48001D016841F08001CD
:1017900001600A481430016841F48041016000682A
:1017A000002200F48040059011464320FFF710FB13
:1017B0004320FFF7FFFA06B010BD000030380240AA
:1017C0000000024070B50446C068012570B10228CF
:1017D00001D0FFF722F92946D4F8080502F0DEFD12
:1017E000D4F80805BDE8704002F093BD0025F2E78B
:1017F000D0F8080502F0BBBDD0F8080502F0C1BD65
:1018000010B5044690F8BC0401280BD0012084F8E0
:10181000BC0484F83810206803F04CFD002084F8E4
:10182000BC0410BD022010BDD0F8082500F2C44150
:10183000104602F0BFBD10B50446006894F8BC1411
:10184000012906D0012184F8BC14A16A012902D023
:1018500008E0022010BDA169012903D0816B41F489
:1018600080318163206803F056FC206803F024F97E
:10187000002084F8BC0410BD10B50446D0F808055B
:1018800002F0DAFD2068D0F8001E41F00101C0F836
:10189000001E206A002804D00248016841F00601B9
:1018A000016010BD10ED00E02DE9F0470E46050087
:1018B00065D0DFF81481D8F80000F7B200F0070017
:1018C000B04207D288F80070D8F8000000F0070096
:1018D000B04254D128683D4C810712D5400703D54A
:1018E000206840F4E05020602878000703D5206885
:1018F00040F4604020602068A96820F0F0000843B0
:1019000020602878C0072DD0304968680839012840
:1019100012D0022813D0032811D0096889070029A2
:101920002DDA216821F0030101432160FFF7E2F97C
:10193000814641F2883A0EE009688903EFE70968B9
:101940008901ECE7FFF7D6F9A0EB0901514502D96F
:101950000320BDE8F0872068696800F00C00B0EB58
:10196000810FEFD1D8F80010404601F00701B142D5
:1019700007D90770006800F00700B04201D00120CD
:10198000E7E72878400705D52068E96820F4E050AB
:10199000084320602878000706D52068296920F4CC
:1019A000604040EAC100206000F03EF82168084A2B
:1019B000C1F30311515CC84006490860064800683D
:1019C000FFF7C0F90020C4E7003C0240083802409D
:1019D00086740008AC000020A400002001480068C4
:1019E00070470000AC000020044805490068096801
:1019F000044AC1F38221515CC8407047AC0000200A
:101A000008380240967400080448054900680968CF
:101A1000044AC1F34231515CC8407047AC00002019
:101A20000838024096740008154810B5006810F098
:101A30000C02144813D04110042A0FD0082A0ED1EA
:101A40000F4C241F2268236802F03F025B0207D577
:101A50002068C0F38810A0FB010106E0084610BD15
:101A60002168C1F38811A1FB00010023FEF77AFC75
:101A70002168C1F30141491C4900B0FBF1F010BDE0
:101A8000083802400024F4002DE9F84F04006ED01D
:101A90002078DFF84C93C007A9F104054AD009F17A
:101AA00004000168C1F38101012908D00068C0F376
:101AB000810002280AD1D9F80000400206D5286822
:101AC000800337D560680028E1D033E06068B0F566
:101AD000803F10D0B0F5A02F286810D020F48030BF
:101AE0002860286820F4802028606068A8B1FFF78B
:101AF00001F906460DE0286840F48030F4E740F430
:101B000080202860F7E700BFFFF7F4F8801B642807
:101B100073D828688003F7D50CE0FFF7EBF806468A
:101B200005E000BFFFF7E6F8801B6428F0D82868BE
:101B30008003F7D42078DFF8AC8280074FF0000AEA
:101B40003ED5A748001D016811F00C0F08D00068B1
:101B5000C0F3810002280BD1D9F80000400207D45D
:101B60002868800716D5E068012800D112E033E12B
:101B7000E068B8B10120C8F80000FFF7BBF80646DE
:101B800005E000BFFFF7B6F8801B0228C0D8286820
:101B90008007F7D52868216920F0F80040EAC100E5
:101BA00028600DE0C8F800A0FFF7A4F8064604E09E
:101BB000FFF7A0F8801B02281FD828688007F7D4F9
:101BC0002078000722D5864F87486169703771B148
:101BD00001210160FFF78EF8064604E0FFF78AF85E
:101BE000801B022809D838688007F7D50EE0C0F8B6
:101BF00000A0FFF77FF8064605E082E0FFF77AF8DD
:101C0000801B02287DD838688007F7D420784007E9
:101C100068D5DFF8CCB100270BF13C0BDBF80000F6
:101C2000C0000BD4DBF8001041F08051CBF800105D
:101C3000DBF80000012700F0805000906B4E306808
:101C4000C00510D4306840F480703060FFF752F85F
:101C5000009005E0FFF74EF80099401A022850D88E
:101C60003068C005F6D55E4EA0686C3601280FD0EE
:101C70000528306810D020F001003060306820F076
:101C800004003060A068B8B1FFF734F800900FE0AE
:101C9000306840F00100F4E740F004003060F7E7FE
:101CA000FFF728F80099411A41F28830814266D83E
:101CB00030688007F4D50EE0FFF71CF8009007E0CD
:101CC000FFF718F80099411A41F28830814256D83E
:101CD00030688007F4D42FB1DBF8001021F0805178
:101CE000CBF80010A069C8B33D49091D0968C1F3CC
:101CF000810102294AD00228504607D0C8F8600066
:101D000000E03CE0FEF7F6FF04463BE04746C8F83B
:101D10006000FEF7EFFF064605E000BFFEF7EAFFB2
:101D2000801B02282BD828688001F7D4D4E907014A
:101D30000843A16A2E4A490802EB0141626A41EA5E
:101D40008211084394F82C1040EA0161C9F8001090
:101D500001203866FEF7CEFF044606E03EE000BFF5
:101D6000FEF7C8FF001B022809D828688001F7D5B4
:101D700034E000BFFEF7BEFF001B022802D903209B
:101D8000BDE8F88F28688001F4D427E00128F7D057
:101D9000D9F80000E26900F4800191421CD1226A66
:101DA00000F03F01914217D147F6C071626A0140CD
:101DB000B1EB821F10D1A26A4FF0FF3300F4403123
:101DC00003EB5202B1EB024F06D194F82C1000F055
:101DD0007060B0EB016F01D00120D1E70020CFE7A8
:101DE0000438024000004742800E47420070004025
:101DF0000000FFFF10B5401EB0F1807F01D301202D
:101E000010BD4FF0E02460610F21601703F005FB67
:101E10000020A06107202061002010BD704770479E
:101E200070B590F83C20012A32D0012480F83C4063
:101E3000022280F83D2003685A689D6822F07006EF
:101E40000A6832435A60134B02689A4214D0B2F1C6
:101E5000804F11D0104B9A420ED0104B9A420BD0AB
:101E60000F4B9A4208D00F4B9A4205D00E4B9A4224
:101E700002D00E4B9A4204D1496825F080031943E1
:101E8000916080F83D40002180F83C10084670BD0C
:101E9000022070BD00000140000400400008004026
:101EA000000C0040000401400040014000180040C8
:101EB00010B5040003D094F83D0010B107E00120F4
:101EC00010BD002084F83C00204600F01FF80220DE
:101ED00084F83D00211D206801F006FA012084F8F5
:101EE000460084F83E0084F83F0084F8400084F8FF
:101EF000410084F8420084F8430084F8440084F8E8
:101F0000450084F83D00002010BD000008B50068C1
:101F1000B0F1804F12D10A48016841F0010101601F
:101F20000068002200F00100009011461C20FEF71E
:101F30004FFFBDE808401C20FEF73CBF08BD000075
:101F40004038024090F83D10012901D0012070472F
:101F5000022180F83D100168CA6842F00102CA609F
:101F600000681149884214D0B0F1804F11D00F4958
:101F700088420ED00E4988420BD00E49884208D0C4
:101F80000D49884205D00D49884202D00C4988424B
:101F900004D1816801F00701062903D0016841F0EE
:101FA0000101016000207047000001400004004072
:101FB00000080040000C00400004014000400140C7
:101FC0000018004070B5044690F83C000025012838
:101FD00017D0012684F83C60022084F83D00206878
:101FE000826822F0770222F47F42826008685028DB
:101FF00038D00DDC20284FD005DC90B3102811D14B
:102000004AE0022070BD302846D040280AD13BE08B
:1020100060282FD070280DD0B0F5805F03D0B0F5C8
:10202000005F12D0012584F83D60002084F83C0058
:10203000284670BDCB68D1E90121206801F0C5F9BF
:102040002068816841F0770109E0CB68D1E901217E
:10205000206801F0BAF92068816841F4804181600C
:10206000E1E719E0CA684968206801F083FA502165
:10207000206806E0CA684968206801F08CFA60218F
:10208000206801F0ACF9CEE7CA684968206801F021
:1020900071FA40212068F4E7226801461046F0E713
:1020A0002DE9F0410D46040003D094F83D0018B12D
:1020B00008E00120BDE8F081002084F83C002046C3
:1020C00000F040F8022084F83D002068816844F266
:1020D000070291438160211D206801F005F9226803
:1020E00090689169166A2B68AF69034340F2033028
:1020F000814341EA0721A868EF6908434FF6FC4194
:102100008843E96840EA0720014328692F6A0001F3
:1021100040EA0730084369686D6926F0AA0646EA76
:102120000515294393602268906154F8460B0162BB
:10213000012004F81F09E0752076E0762077A0756D
:102140000020B7E710B586B0044614216846FEF7B4
:1021500088FA1349206888421FD11248002102687A
:1021600042F004020260006800F0040005900D488F
:102170001038026842F008020260006800F00800AF
:1021800005904FF4405000900220CDE90101CDE9C7
:10219000031069460448FEF7AFFC06B010BD00000E
:1021A0000008004040380240000C024070B590F832
:1021B0003E60044690F83F5090F8423090F843203B
:1021C000022021B104290ED0012E1BD114E0012ED2
:1021D00018D1012B16D184F83E0084F84200012268
:1021E0000021206820E0012D0CD1012A0AD184F8B9
:1021F0003F0084F8430014E0012D03D1012B01D1ED
:10220000012A01D0012070BD84F83E0084F83F000F
:1022100084F8420084F8430001220021206801F084
:10222000C7F801220421206801F0C2F82068016883
:1022300041F001010160002070BD704770B5044697
:10224000006801694FF00005C943890715D4C168CA
:10225000C943890711D4E91E016101202077206854
:1022600080698007204602D0FFF7E7FF04E000F016
:10227000C1F8204600F066F9257720680169C94356
:10228000490717D4C168C943490713D46FF0040143
:102290000161022020772068806910F4407F204689
:1022A00002D0FFF7CAFF04E000F0A4F8204600F0D7
:1022B00049F9257720680169C943090716D4C1681F
:1022C000C943090712D46FF0080101610420207787
:1022D0002068C0698007204602D0FFF7AEFF04E007
:1022E00000F088F8204600F02DF925772068016974
:1022F000C943C90617D4C168C943C90613D46FF0CE
:1023000010010161082020772068C06910F4407F27
:10231000204602D0FFF791FF04E000F06BF8204662
:1023200000F010F9257720680169C943C90708D171
:10233000C168C943C90704D1891E0161204600F064
:1023400067F920680169C943090609D4C168C9430E
:10235000090605D46FF0800101612046FFF75EFD9C
:1023600020680169C943490609D4C168C9434906BF
:1023700005D46FF040010161204600F06BF9206840
:102380000169C94389060BD4C168C943890607D4CA
:102390006FF0200101612046BDE87040FFF73FBDAE
:1023A00070BD000010B586B0044614216846FEF7E3
:1023B00058F90D492068884214D10C480021026860
:1023C00042F001020260006800F001000590402028
:1023D00000900220CDE90101CDE9031069460448CF
:1023E000FEF78AFB06B010BD000400403038024002
:1023F00000000240704770B5044690F83C0000268B
:102400000D4601280FD0012084F83C006AB1042A4F
:102410001DD0082A2FD00C2A3FD00126002084F896
:102420003C00304670BD022070BD206800F0E0FF27
:102430002068816941F0080181612068816921F08B
:1024400004018161206881692A69114311E02068D3
:1024500000F0FEFF2068816941F40061816120681D
:10246000816921F480618161206881692A6941EA7A
:1024700002218161D2E7206801F020F82068C1695B
:1024800041F00801C1612068C16921F00401C16106
:102490002068C1692A69114311E0206801F042F8FF
:1024A0002068C16941F40061C1612068C16921F4FB
:1024B0008061C1612068C1692A6941EA0221C16164
:1024C000ACE710B5040003D094F83D0010B107E06C
:1024D000012010BD002084F83C00204600F01EF8CA
:1024E000022084F83D00211D206800F0FDFE01203F
:1024F00084F8460084F83E0084F83F0084F84000E9
:1025000084F8410084F8420084F8430084F84400D1
:1025100084F8450084F83D00002010BD08B500682F
:102520000649884208D10648016841F0020101606D
:10253000006800F00200009008BD000000040040A8
:10254000403802407047000010B50446022249B1ED
:1025500004290ED0082913D094F84100012816D080
:10256000012010BD94F83E000128F9D184F83E20E6
:102570000FE094F83F000128F2D184F83F2008E0F2
:1025800094F840000128EBD184F8402001E084F861
:1025900041200122206800F00BFF16492068164AEE
:1025A000884201D0904203D1436C43F4004343641A
:1025B0002068884213D0B0F1804F10D00F49884274
:1025C0000DD00F4988420AD00E49884207D0904268
:1025D00005D00D49884202D00C49884204D1816857
:1025E00001F00701062903D0016841F001010160F3
:1025F000002010BD00000140000401400004004024
:1026000000080040000C004000400140001800405D
:102610000D4900680968884212D10C4801780829E0
:102620000ED2DFE801F00D0D0D040D0D0D0E084961
:102630000988C82902D8192000F02CBC012101709A
:10264000704700F047BB0000FC0A0020000000209B
:10265000020000207047704770470000F8B501681D
:1026600004460868CA684B6910F00F0F4FF0000568
:1026700059D003F0010602F49077374365D0C107C3
:1026800005D0D10503D5216C41F00101216441073A
:1026900005D5D90703D0216C41F0020121648107DF
:1026A00005D5D90703D0216C41F00401216401074D
:1026B00007D502F02001314303D0216C41F008011D
:1026C0002164216C00293AD0800604D5900602D5F9
:1026D000204600F0A1FF20684069216CC0F3801003
:1026E000090700D460B3204600F06FFF20684069FE
:1026F000400621D52068143050E8001F21F0400129
:1027000040E80012002AF5D1A06BA8B16C49016520
:10271000A06BFEF7CDF9002811D0A06B016D01B0C0
:10272000BDE8F040084783060FD593060DD5204637
:10273000BDE8F84000F070BF2046FFF78DFFF8BD00
:102740002046FFF789FF2564F8BD266B2023012E64
:1027500079D1C60677D5D60675D508684868009041
:102760004869400640D5A16B086840680004000C29
:10277000EAD0A28D8242E7D9E085C869B0F5807FB2
:102780002DD020680C3050E8001F21F4807140E803
:102790000012002AF5D12068143050E8001F21F003
:1027A000010140E80012002AF5D12068143050E8F9
:1027B000001F21F0400140E80012002AF5D184F802
:1027C0003E30256320680C3050E8001F21F01001D6
:1027D00040E80012002AF5D1A06BFEF720F9A08D89
:1027E000E18D401A81B229E0A08DE18D401A81B2BD
:1027F000E08D0028A8D00029A6D020680C3050E831
:10280000002F22F4907240E80026002EF5D12068B7
:10281000143050E8002F22F0010240E80026002E7C
:10282000F5D184F83E30256320680C3050E8002F45
:1028300022F0100240E80023002BF5D12046FFF7DC
:102840000AFFF8BDFFE705062BD5150629D594F834
:102850003D002128F5D1A068B0F5805F01D1206945
:10286000B0B1206A411C2162216800784860E08C88
:10287000401E0004000CE084E3D12068C16821F010
:102880008001C1602068C16841F04001C160D8E7A3
:10289000206A0088C0F308004860206A801C20621B
:1028A000E5E74006CDD55006CBD5CA68204622F0D4
:1028B0004002CA6084F83D3000F09AF8C1E7000099
:1028C000BB35000870B5040004D094F83D00002525
:1028D00010B106E0012070BD84F83C50204600F0A5
:1028E00023F8242084F83D002068C16821F40051B9
:1028F000C160204600F0F0FE2068016921F490419B
:1029000001612068416921F02A0141612068C168A4
:1029100041F40051C1602564202084F83D0084F812
:102920003E00002070BD000010B586B004461421A2
:102930006846FDF796FE17492068884228D1164858
:102940000021026842F010020260006800F01000EE
:10295000059011481438026842F0020202600068D3
:1029600000F002000590C02000900220CDE9010196
:10297000032003900720049069460848FEF7BCF83E
:10298000002211462520FEF723FA2520FEF712FA31
:1029900006B010BD0010014044380240000402405F
:1029A00090F83E30202B0ED159B152B190F83C3006
:1029B000012B08D0012380F83C300023036300F092
:1029C00011BF0120704702207047000005490068D0
:1029D0000968884205D1044901200870034800F0C5
:1029E000C5BB7047D40B002018000020E80A002067
:1029F0007047FEE7F0B500230A24302537261F462E
:102A000011E000BFB4EB107F02D905EB107C01E0B0
:102A100006EB107C01F813C001EB430C00015B1CBA
:102A20008CF80170DBB29342ECD3F0BD70B586B088
:102A300014216846FDF715FE1A480024016841F08C
:102A400080010160016801F080010591016841F099
:102A500001010160016801F001010591016841F087
:102A600002010160016801F002010591016841F075
:102A70000801016000680C4E00F008004FF400658A
:102A80000590002229463046FEF72EF901200095D8
:102A9000CDE90104694630460394FEF72DF806B0EF
:102AA00070BD0000303802400004024010B586B00E
:102AB00000241648009401940294039404944FF067
:102AC0008041059401606321C0E9011440F60F6163
:102AD000C0E903148461FFF7EBF908B1FDF79DFF2E
:102AE0004FF48050009069460848FFF76BFA08B130
:102AF000FDF793FF049404A904480594FFF790F9A7
:102B0000002801D0FDF789FF06B010BDFC0A0020A7
:102B100030B589B0002407941C2168460894FDF75D
:102B2000A0FD16481449602501600921C0E901157E
:102B300041F61F41C0E903148461FFF7C2FC08B1EC
:102B4000FDF76BFF079407A90C480894FFF768F995
:102B500008B1FDF762FFCDE90054029400226946F6
:102B600006480494FFF747FC08B1FDF756FF0348F9
:102B7000FFF718FC09B030BD00040040440B0020F2
:102B800010B58CB024216846FDF76BFD0024164873
:102B9000099414490A94C0E900144FF6FF71C0E982
:102BA0000241046184610320CDE900040120CDE9E4
:102BB00002040494CDE90540079469460A48089444
:102BC000FFF76EFA08B1FDF728FF099409A9064836
:102BD0000A94FFF725F9002801D0FDF71EFF0CB07D
:102BE00010BD0000000800408C0B00200C4810B500
:102BF0000A4901604FF4E1314160002181600C22FB
:102C0000C160C0E904128161C161FFF75BFE002869
:102C100003D0BDE81040FDF700BF10BD001001401B
:102C2000D40B002010B500220F49104801F017FA0C
:102C300008B1FDF7F2FE0E490C4801F025FC08B181
:102C4000FDF7EBFE0B49094800F0B8FF08B1FDF7AE
:102C5000E4FE064801F09CFC002803D0BDE81040CB
:102C6000FDF7DBBE10BD00003C000020180C00206A
:102C7000080100208C000020FEE7000010B510487D
:102C8000FFF760F900210F48FFF75EFC00210E48B6
:102C9000FFF78CFA04210C48FFF788FA0B4800F084
:102CA0003BFADFED0B0AB7EE000A0848B0EE601AF7
:102CB00000F01EFABDE81040002000F0DBB8000074
:102CC000FC0A0020440B00208C0B00204001002057
:102CD000000000002DE9F0415D4F2DED028B3868BA
:102CE000406A5C4DA0F500409FED5B8A5B4CE8605C
:102CF000F0EE001A94ED0C0AD4ED090AB4EEE00AE5
:102D0000F1EE10FA10D894ED031A61EE000A21EEEC
:102D1000211A60EE800A21EE000AFDEEE00A85ED40
:102D2000020AF8EEE00A33E0D4ED0A0AB4EEE00A53
:102D3000F1EE10FA0AD8D4ED050A94ED041A41EE2A
:102D4000000ABDEEE00AF8EEC00A1CE0D4ED0B0A62
:102D5000B4EEE00AF1EE10FA18D894ED062A94EDDC
:102D6000071AD4ED082A62EE000A62EE211A60EE1C
:102D7000800A41EE000A01EE801A70EEA20AFDEE12
:102D8000E00AF8EEE00A85ED021A01E0D4ED020A4D
:102D9000BCEEE00A10EE100A80B2FDF71BFE2861BF
:102DA00000EE100AD5ED030A9FED2D1AB8EE400A89
:102DB000F8EE600A2B4800F06FF9BDEEC00A2A4E0B
:102DC00010EE100A00B26860002803DB012002E068
:102DD000404205E0002000F04DF868680028F7DB6D
:102DE000316880B24863D4ED0C0A94ED0B0AF4EE1E
:102DF000C00AF1EE10FA0FDD39684FF40040486266
:102E00000020686085ED028A84ED0C8A012028701C
:102E10003168002048630BE0A88980B2FDF7EBFD24
:102E2000104A698802EB4102491CA2F8A40169809A
:102E3000206B04F035FA9FED0D1B53EC112B03F0C2
:102E4000BFFC03F08BFC2063BDEC028BBDE8F0817E
:102E50008C0B00200000002000000000B40A0020BD
:102E60000AD7233C40010020440B00207B14AE47CE
:102E7000E17A843F064B4FF4006128B1012805D167
:102E800001221846FDF730BF0022FAE77047000024
:102E90000004024070B51B490968496A1A4CA1F543
:102EA0000041E160FDF796FD206100EE100AD4EDCF
:102EB000030A9FED161AB8EE400AF8EE600A1448AD
:102EC00000F0EAF8BDEEC00A124D10EE100A00B292
:102ED0006060002803DB012002E0404205E00020A2
:102EE000FFF7C8FF60680028F7DB296880B24863F5
:102EF000074A6088A18902EB4002401C91826080F1
:102F000070BD00008C0B0020000000200AD7233C7D
:102F100040010020440B0020FEE700000148FEF7BE
:102F2000E5B80000381300202DE9F04103680D4694
:102F300004461E6C03EB4511D1F8080BD4F810E0E1
:102F40004FF400474FF0200C04F2C442BEF1010FD1
:102F500009D0DFF898E0764539D1020432D500BFB8
:102F6000C1F8087B3FE0224B5FEA007E04D59E4219
:102F700039D90004F4D436E05FEA806E02D5C1F896
:102F800008CB30E010F0280F2DD19E4201D900046B
:102F9000E6D405EBC50004EB8000D1F8101BD0F897
:102FA0009832C1F31201591AC0F89C1200F51F7033
:102FB000ADB983691BB10269114401610FE00121C0
:102FC00020680AE080060AD5C1F808CB07E035B9C9
:102FD000D4F8940218B90021184601F0D7FEE9B2DE
:102FE0002046FDF75BFF0020BDE8F0810A31544F19
:102FF0000A30544F2DE9F84F0E4601EBC60100EBA5
:10300000810481460568616DE06D3C34884202D9D7
:103010000120BDE8F88F081AE168814200D2084615
:10302000C01C870805EB46181BE000BFA0EB010A97
:10303000E068504500D282460AF10300870899F8FB
:10304000100000901FFA8AF3F2B22846216902F0BC
:10305000B7F9216901EB0A002061216A01EB0A003E
:103060002062D8F8180980B2B84205D3216AA06955
:10307000814201D20028D9D1216AA069884208D8AA
:1030800006F00F0101208840D5F834188143C5F8B7
:1030900034180020BDE7000070EE600A1349F6EE18
:1030A000002AC1ED000A90ED000A60EE201A90EDB2
:1030B000040A30EE200A80ED040A90ED012A22EE87
:1030C000012A22EE222AD0ED032A22EE000A70EE17
:1030D000E22A90ED022AC0ED030A31EE800A62EE88
:1030E000222A82EE812A30EE020A70471400002064
:1030F00000B5F0EE401A014600F00EF8C1ED001ADE
:10310000C1ED010A81ED021A02494FF4004009683D
:10311000486200BD8C0B00209FED040A80ED040A7C
:1031200080ED030A024880ED000A704700000000AD
:1031300014000020704770470178407841EA002071
:1031400070470000122202490248FFF729BC000024
:10315000E80A0020D40B0020122202490248FFF79F
:103160001FBC0000E80A0020D40B002010B5154A4F
:1031700001781278914223D11249407C491C097888
:1031800088421DD1042201210F4803F0CAFA0D4CD8
:103190000068641E0322C4F8070005210A4803F0F2
:1031A000C0FA0188A1808078A071082211460648E3
:1031B00003F0B7FA0168C4F80B104068C4F80F00B8
:1031C00010BD000019000020E80A00202DE9F041A0
:1031D000074615460E461220FDF76EF80E490446C6
:1031E0004A7802703868C4F801003088A4F80500F5
:1031F000B078E0712868A0606868E060C8782074E2
:103200008878607412212046FDF7CEFB2046BDE889
:10321000F041FDF780B800001800002030B5002311
:1032200006E0C45CCD5CAC4201D0002030BD5B1C2C
:103230009342F6DB012030BDFDF762BD30B593B09F
:1032400030216846FDF70DFA14210CA8FDF709FAA4
:103250001C480025016841F080510160006800F0C1
:10326000805011901848016841F480410160006865
:10327000022400F48040119001200090000401908D
:103280008001CDE90640042008904820CDE90904DA
:1032900003200B906846FEF7F7FB08B172B6FEE715
:1032A0000CA90F2081E831004FF48050CDE90F05C3
:1032B00002210CA8FEF7F8FA002801D072B6FEE74A
:1032C00013B030BD40380240007000400248016831
:1032D00041F470010160704788ED00E00148FEF79D
:1032E000ADBF0000FC0A0020F0B50268254C264D59
:1032F000264E274F274B4FF0804CA04209D0604507
:1033000007D0A84205D0B04203D0B84201D09842BD
:1033100004D122F0700E4A6842EA0E02A0421BD08D
:10332000604519D0A84217D0B04215D0B84213D08A
:10333000984211D0184DA8420ED0184DA8420BD07B
:10334000174DA84208D0174DA84205D0164DA842E7
:1033500002D0164DA84203D122F44075CA682A4310
:103360004D6922F080022A4302608A68C2620A68BC
:103370008262A04201D0984201D109690163012112
:103380004161F0BD00000140000400400008004021
:10339000000C004000040140004001400044014096
:1033A0000048014000180040001C00400020004080
:1033B00010B501F01F030121046A99408C43046297
:1033C000016A9A401143016210BD10B5846842EA57
:1033D000032224F47F440A432243826010BD8268A2
:1033E00022F070020A4342F007018160704700003A
:1033F000F0B5026A22F001020262036A426884693F
:10340000124E24F073050C682C4323F002058B68E0
:103410002B430D4DA84201D0B04205D123F008073F
:10342000CB683B4323F00403A84201D0B04205D14E
:103430004D6922F4407215438A692A4342608461CF
:10344000496841630362F0BD00000140000401408F
:10345000F0B5026A22F010020262026A43688469CF
:103460000D6824F4E64444EA05248D6822F0200225
:1034700042EA05120F4D104EA84201D0B04206D1CB
:10348000CF6822F0800242EA071222F04002A842EE
:1034900001D0B04207D14D6923F4406343EA85036C
:1034A0008D6943EA850343608461496881630262F0
:1034B000F0BD00000000014000040140F0B5026AC8
:1034C00022F480720262026A4368C46922F40072C4
:1034D00024F073050C68124E2C438D6842EA0522D5
:1034E0000E4DA84201D0B04206D1CF6822F400624E
:1034F00042EA072222F48062A84201D0B04207D1FA
:103500004D6923F4405343EA05138D6943EA0513DB
:103510004360C4614968C1630262F0BD00000140BC
:103520000004014030B5026A22F480520262046A4B
:103530004268C3690D6823F4E64343EA05238D68B6
:1035400024F4005444EA0534084DA84202D0084D42
:10355000A84204D14D6922F4804242EA85124260B9
:10356000C36149680164046230BD0000000001408D
:103570000004014010B5036A046A24F001040462E7
:10358000846924F0F00444EA021423F00A020A4396
:103590008461026210BD10B5036A23F01003036258
:1035A0008369046A23F4704343EA023224F0A003DF
:1035B00043EA01118261016210BD10B5806B0021E8
:1035C000C185C184FFF748F810BD01680C3151E88E
:1035D000002F22F4907241E80023002BF5D10168FE
:1035E000143151E8002F22F0010241E80023002BA2
:1035F000F5D1016B012909D101680C3151E8002F87
:1036000022F0100241E80023002BF5D1202180F8A0
:103610003E1000210163704708B590F83E10222942
:1036200001D0022008BD82684FF480539A4201D134
:10363000016921B1816A9A421BD04AB10AE002684D
:10364000816A5268C2F308020A80816A891C08E014
:10365000026972B10268526802F07F020A70816AE0
:10366000491C8162C18D491E0904090CC18503D022
:1036700019E002685268F1E70168CA6822F0200286
:10368000CA600168CA6822F48072CA6001684A6927
:1036900022F001024A61202180F83E10016B0129CD
:1036A00003D0FFF793F9002008BD002101630168F2
:1036B0000C3151E8002F22F0100241E80023002BCA
:1036C000F5D101680A68D20602D50A6849680091F6
:1036D000818DFEF7C0FFE6E770B50446006801691A
:1036E000E26821F44051114301612169A068E26957
:1036F00008436169114308432168CA6849F20C63B1
:103700009A430243CA6020684169A26921F440716A
:103710001143416131492068884202D030498842D2
:1037200002D1FEF771F901E0FEF75EF9E2690023CC
:10373000192164253226B2F5004F626828D0A0FB1B
:103740000101930F9200FCF70DFE0146B0FBF5F06E
:103750006FF01802504301EB800006EB0010B0FB45
:10376000F5F000F0F002B1FBF5F002EB0012B1FB56
:10377000F5F06FF01803584301EB800006EB0010E2
:10378000B0FBF5F000F00F0021681044886070BDB8
:10379000A0FB010192185B41FCF7E4FD0146B0FB80
:1037A000F5F00201B1FBF5F06FF01803584301EB9F
:1037B000800006EBC000B0FBF5F000F0F80002EB73
:1037C0004002B1FBF5F0584301EB800006EBC0006E
:1037D000B0FBF5F000F00700D6E700000010014054
:1037E0000014014081628285C28500210164222289
:1037F00080F83E2080F83C10016921B10168CA6858
:1038000042F48072CA6001684A6942F001024A616A
:103810000068C16841F02001C160002070470000CD
:103820000148FEF71BBF0000D40B00202DE9F0413A
:103830000C46D0F8D412D0F8C82200EB8101D1F8A0
:10384000C01229B304F00F0606EB860300EB8305D4
:103850000027AB694BB106EBC60602EB8602926C01
:10386000B3FBF2F602FB1632A2B1C1F81472D0F823
:10387000D42200EB8200D0F8C40203692BB1D1F846
:103880000802224601F5047198470020BDE8F08146
:103890000320FBE700231A462146AF6100F0D5FD67
:1038A000F3E770B50546D0F8D40205EB8000D0F8F8
:1038B000C04294B1284600F0AAFCC4F80C02D5F826
:1038C000D412D4F8040205EB8101D1F8C412CA68FD
:1038D00004F503719047002070BD032070BD000007
:1038E00070B5224D0446297800F0D5FB28780026D3
:1038F00000F00F0000EB800004EB80008684697804
:10390000204600F0C8FB687800F00F0000EB800054
:1039100004EB8000A0F86461A978204600F0BBFBAE
:10392000A87800F00F0000EB800004EB8000868494
:10393000C684D4F8D40204EB8000D0F8C01299B148
:10394000D0F8C40240688047D4F8D40204EB800069
:10395000D0F8C00200F09DFFD4F8D40204EB800040
:10396000C0F8C062C4F8BC62002070BDB400002082
:1039700010B5D0F8D41200EB8100D0F8C04284B169
:10398000D0F8C41259B194F80002FF2807D08B6810
:1039900094F8012221469847FF2084F80002002075
:1039A00010BD032010BD00000A21018000487047AF
:1039B000B800002070B5064682210C4800F0FBFAE2
:1039C00005460121094800F0F6FA0446812107481E
:1039D00000F0F1FA0DB11021A971402104B1A180CC
:1039E00000B1818043203080004870BDC4000020B9
:1039F00070B5064682210D4800F0DDFA054601212A
:103A00000A4800F0D8FA04468121084800F0D3FAA9
:103A10000DB11021A9714FF4007104B1A18000B162
:103A2000818043203080014870BD0000C400002028
:103A300070B5064682210C4800F0BDFA054601210A
:103A4000094800F0B8FA04468121074800F0B3FAAB
:103A50000DB11021A971402104B1A18000B1818074
:103A600043203080004870BDC40000202DE9F0479D
:103A700004464FF40775284600F00CFF06004FF08F
:103A8000000863D02946FCF7ECFDD4F8D4023C4D85
:103A900004EB80004FF01009C0F8C062C4F8BC62AB
:103AA000207C4FF4007A0127F0B3402302222978CA
:103AB000204600F019FC2878402300F00F0000EBAE
:103AC000800004EB8000878402226978204600F0A1
:103AD0000BFC6878082300F00F0000EB800004EB7B
:103AE00080000322A0F86471A978204601F00F013C
:103AF00001EB810104EB8101A1F82690A97800F087
:103B0000F3FBA87800F00F0000EB800004EB8000CE
:103B10008784C6F80482D4F8D402474604EB8000B8
:103B2000D0F8C402006800E018E006F5017680478E
:103B30003761776132687AB1207CF8B140236978C7
:103B4000204600F0DDFB0020BDE8F087D4F8D41259
:103B500004EB8101C1F8C0820220F5E7534602223E
:103B60002978204600F0C0FB2878534600F00F006B
:103B700000EB800004EB80008784A5E75346DEE776
:103B8000B400002010B5D0F8D41200EB8101D1F8B8
:103B9000C01259B1027C084C002AD1F8042207D087
:103BA0004023617800F0ACFB002010BD032010BD65
:103BB0004FF40073F5E70000B400002039B1D0F8ED
:103BC000D42200EB8200C0F8C4120020704703200A
:103BD0007047D0F8D42200EB8200D0F8C00218B1B0
:103BE000C0F804120020704703207047D0F8D43288
:103BF00000EB8300D0F8C00228B1C0F81022C0F852
:103C0000081200207047032070472DE9FC4106464A
:103C1000D0F8D4020C4606EB80000021D0F8C07228
:103C20008DF80010ADF804100D4637B1217811F071
:103C300060022FD0202A4BD102E00320BDE8FC8196
:103C4000E288F2B109060DD5D0F8C402637839468E
:103C5000D0F808C01846E047E288072A00D90722B2
:103C600039462DE0607887F80002E088402800D3CC
:103C70004020C2B287F801223946304600F081F870
:103C80002BE0D0F8C40263780022866821461846EB
:103C9000B04722E0607830B101281ED00A2809D050
:103CA0000B2815D110E096F89C02032810D10222AF
:103CB00001A905E096F89C02032809D10122694672
:103CC000304600F078F808E096F89C02032804D00B
:103CD0002146304600F04AF803252846AEE70000AA
:103CE00010B5D0F8D41200EB8101D1F8C022012127
:103CF0001AB1D2F8143213B116E0032010BD01211D
:103D0000C2F814120949D2F81032097801F00F04F0
:103D100004EB840400EB8404A361D2F81032D2F8DF
:103D2000082200F092FB0021084610BDB4000020DC
:103D300010B5D0F8B82200245268904700B103248F
:103D4000204610BD0020704700207047134610B574
:103D50000A46002100F0D4FA002010BD134610B529
:103D60000A46002100F071FB002010BD10B504468A
:103D7000802100F04FFB2046BDE81040002100F0FC
:103D800049BB10B50323C0F89432C0F8582113463C
:103D9000C0F85C210A46002100F0B2FA002010BDF4
:103DA00010B50521C0F8941200231A46194600F0F8
:103DB000A7FA002010BD10B50223C0F8943282612A
:103DC0001346C2610A46002100F03FFB002010BDEF
:103DD00010B50421C0F8941200231A46194600F0C9
:103DE00034FB002010BD000010B50A46024903A0B4
:103DF00000F005F9004810BDF40E002043444320B4
:103E0000436F6E66696700001220088000487047A3
:103E10005C00002010B50A46024903A000F0EFF84C
:103E2000004810BDF40E002043444320496E7465E1
:103E300072666163650000000420088000487047D6
:103E40005800002010B50A46024903A000F0D7F838
:103E5000004810BDF40E002053544D6963726F6525
:103E60006C656374726F6E696373000010B50A4607
:103E7000024903A000F0C3F8004810BDF40E002072
:103E800053544D3332205669727475616C20436F00
:103E90006D506F727400000010B51A2008800A4837
:103EA0000168001D0468001D0068081809D0082278
:103EB0000649FEF79FFD0549042210312046FEF712
:103EC00099FD0248801E10BD107AFF1F720000206D
:103ED000F8B504460020ADF8000048880D46010AF8
:103EE00008295FD2DFE801F05E0409175E5E3C45F9
:103EF000D4F8B412207C0A6819E0207C022600283D
:103F0000D4F8B80205D0C16A6846884701464670B1
:103F100039E0816AF8E7C0B2062843D2DFE800F052
:103F2000030A1014181CD4F8B402426805E069466C
:103F300090471CE0D4F8B402826892B3207CF6E784
:103F4000D4F8B402C268F8E7D4F8B4020269F4E71E
:103F5000D4F8B4024269F0E7D4F8B4028269ECE71D
:103F6000207CF0B9D4F8B802416B68468847014616
:103F700009E0207CA8B9D4F8B802016B68468847EC
:103F8000014607204870EA888AB1BDF8000040B1B8
:103F9000824200D90246ADF800202046FFF70BFF11
:103FA000F8BDFFE729462046FFF7E0FEF8E7204688
:103FB000FFF70EFFF4E778B50E464288017800253A
:103FC00004468A4212D9ADF800100AE0694600F0B2
:103FD0000FF84178052904D181780546B14205D012
:103FE00000256188BDF800209142EFD8284678BDB1
:103FF0000A8803781A440A8001780844704770B52B
:10400000002300281ED00025044602E06D1CEDB2FE
:10401000641C2678002EF9D1022404EB4504148098
:104020001278CA545B1C0322CA5400245B1C06E0AD
:10403000CA545B1CDAB28C54521CD3B2401C0278B6
:10404000002AF5D170BD01004FF0000004D0012915
:1040500001D0022901D0032070470120704778B1B8
:104060000023C0F8B832C0F8C432C0F8D03209B169
:10407000C0F8B412012180F89C12027000F0CCB894
:104080000320704710B5D0F8C802FCF74AFFBDE81E
:104090001040FFF7D8BF10B5D0F8C802FCF71BFFDF
:1040A000BDE81040FFF7CFBF2DE9F04117460446A9
:1040B000002521B194F89C02032842D04CE0D4F8AA
:1040C000941204F11400022935D1D0E902639E4212
:1040D00006D9F21A826039462046FFF73FFE0FE00C
:1040E000B34214D14068984211D3D4F89812884250
:1040F0000DD2002211462046FFF730FEC4F8985238
:1041000000231A461946204600F0FAF813E094F806
:104110009C02032808D1D4F8B802C16821B1C4F8C0
:10412000D452C168204688478021204600F072F9A9
:104130002046FFF735FE94F8A00268B184F8A0523B
:104140000AE0D4F8B802426932B1C4F8D4524269E4
:1041500020469047002800D10020BDE8F08170B5CE
:1041600013460446002221B194F89C02032830D063
:104170003AE0D4F8941204F5AA70032934D1D0E9B6
:1041800002518D420AD96A1A82600846824200D3DF
:10419000024619462046FFF7D9FD25E094F8AA0209
:1041A00010F01F0003D0012802D0022800D0002206
:1041B00094F89C02032808D1D4F8B802016921B10F
:1041C000C4F8D4220169204688472046FFF700FE44
:1041D0000AE0D4F8B802836933B1C4F8D422826902
:1041E00020469047002800D1002070BD0020704775
:1041F00010B50024012180F89C12D0F8B82222B119
:1042000052680179904700B10324204610BDD0F8D0
:10421000C802FCF7B4BE000010B5017839BB1549DF
:104220000222C1F80805C0F8C8124FF0A04008608B
:10423000042048600020C1E90320C1E9062008628B
:104240004862C86208630846FDF708FA08B1FCF73F
:10425000E4FB80210748FCF7EEFD402200210548E1
:10426000FCF7EDFD802201210248FCF7E8FD00206B
:1042700010BD0000381300200A0601F07F01D0F8BD
:10428000C80201EBC10100EB810002D590F83E00AD
:10429000704790F87E02704710B5D0F8D42200EB3A
:1042A0008202D2F8B82222B190F89C32032B02D0BD
:1042B00004E0032010BD126A02B19047002010BD37
:1042C00010B5D0F8D42200EB8202D2F8B82222B185
:1042D00090F89C32032B02D004E0032010BD526AF8
:1042E00002B19047002010BD10B51C461346D0F80F
:1042F000C8022246FCF74CFEBDE81040FFF7A3BE03
:1043000010B5D0F8C802FCF773FEBDE81040FFF707
:104310009ABE2DE9F04100260125044680F89C5202
:10432000C4F894626660C4F8A46280F8A062D0F811
:10433000B80230B1426822B100212046904700B156
:1043400003260022402311462046FFF7CDFF4027D9
:10435000A4F864513B46002280212046C4F86071D5
:10436000FFF7C2FFA58430462762BDE8F08190F8D0
:104370009C12042903D190F89D1280F89C12002011
:10438000704710B590F89C12032905D1D0F8B812E7
:1043900011B1C96901B18847002010BD0174002026
:1043A000704710B5D0F8C802FDF72AFABDE81040F2
:1043B000FFF749BE70B5044600F2AA20054600F09A
:1043C0004DF80120C4F89402B4F8B002C4F8980281
:1043D00094F8AA0210F01F010AD001290ED0022978
:1043E00012D000F080012046BDE8704000F012B805
:1043F00029462046BDE8704000F0CCB8294620464A
:10440000BDE8704000F00CBA29462046BDE8704077
:1044100000F056B910B5D0F8C802FCF70DFEBDE8A3
:104420001040FFF710BE10B5D0F8C802FDF703FA30
:10443000BDE81040FFF707BE90F89C1280F89D126F
:10444000042180F89C120020704710B5D0F8C802F3
:10445000FCF72CFEBDE81040FFF7F5BD70B5054632
:1044600011F8010B2870087868704C1C2046FEF784
:1044700063FE6880A41C2046FEF75EFEA880A01C98
:10448000FEF75AFEE88070BD38B504460020ADF84E
:104490000000A1B1C4F8B812D4F8D40204EB800033
:1044A000D0F8B802C16A19B168468847C4F8D0028A
:1044B000D4F8D802401CC4F8D802002038BD03202C
:1044C00038BD02460020D2F8B832002B02D01B685B
:1044D00010461847704700002DE9F04188462B4EE2
:1044E0008978002504463170012906D941462046C5
:1044F000FFF73CFC0320BDE8F08194F89C02022702
:1045000002280CD003281DD041462046FFF72EFC80
:1045100031782046FFF70CFC03252846EBE789B3EA
:1045200020466160FFF7CDFF050004D041462046DC
:10453000FFF71CFC1DE02046FFF74AFC032084F82F
:104540009C02EAE7C1B1606888421BD0C1B2204634
:10455000FFF7EEFB317820466160FFF7B2FF050000
:1045600010D041462046FFF701FC21792046FFF795
:10457000DFFB84F89C72D0E784F89C72204661606F
:10458000FFF7D6FB2046FFF723FCC6E7B00000206C
:10459000FFF749BF2DE9F0410A78002512F06002CB
:1045A0000CD0202A01D0402A7DD1D0F8D42200EBB3
:1045B0008202D2F8B8229268904731E04B7800220C
:1045C00001260A2B6FD2DFE803F041666E586E08B1
:1045D000056E2D29FFF77CFC67E004468888D8B972
:1045E000C888C8B94888802816D200F07F0794F898
:1045F0009C02032810D084F89E7239462046FFF7AB
:10460000D0FE2046FFF7E4FB1FB1022084F89C0295
:104610004BE084F89C6248E0204644E0FFF75CFFF2
:10462000054642E0CB88012B3DD190F89C32012B0E
:1046300004D0022B02D0032B35D104E0826001228A
:1046400000F1080116E00122011D13E090F89C2200
:10465000012A03D0022A01D0032A24D1CA88022ABF
:1046600021D1C660D0F8A41209B10321C160022291
:1046700000F10C01FFF79FFB17E04A88012A02D0E6
:10468000022A03D00FE0C0F8A46216E08988090A64
:1046900080F8A01211E090F89C32012B08D0022B78
:1046A00006D0032B04D0FFF761FB2846BDE8F0815C
:1046B00049880129F9D1C0F8A422FFF789FBF4E762
:1046C0002DE9F041054608780C790E464FF00008B8
:1046D00010F060000BD0202801D040286AD121467C
:1046E0002846FFF72FFBFF2800D0D8B395E070785D
:1046F000C8B3012824D003285CD195F89C02022875
:1047000002D0032856D10CE0002C53D0802C51D07D
:1047100021462846FFF77EFE80212846FFF77AFED5
:104720007BE0708840B93CB1802C05D0C88818B9AE
:1047300021462846FFF76EFE2846FFF749FB6CE04E
:1047400095F89C020228DFD0032863D1708880BBD3
:10475000600603D021462846FFF794FC2846FFF761
:1047600037FBBCE700E00AE0C5F8D402D5F8B80290
:104770008268F2B131462846904780464DE095F870
:104780009C020027022802D0032843D113E00CB179
:10479000802C3FD1200604F07F0000EB800005EB69
:1047A000800101D5143101E001F5AA7102220F60E8
:1047B0002CE032E02EE0200604F00F0000EB800039
:1047C00005EB800009D5808C20B304F07F0000EB5E
:1047D000800005EB800614360AE0B0F86401C8B129
:1047E00004F07F0000EB800005EB800606F5AA765A
:1047F0004CB1802C07D021462846FFF73DFD10B173
:104800000120306000E03760022231462846FFF781
:10481000D2FA02E02846FFF7A9FA4046BDE8F08147
:1048200070B50546087800240E4610F0600003D0ED
:10483000202801D0402827D195F89C02012803D0D8
:10484000022801D003281FD1B088C1B201291AD88B
:10485000C1B22846FFF778FAFF280CD058B9D5F82E
:10486000B8128A683AB1C5F8D4028A683146284637
:104870009047044600E00324F088204307D12846EF
:10488000FFF7A6FA03E031462846FFF76FFA204605
:1048900070BD7047004870471811002070B50A7845
:1048A000012302F00F054E78AB401B4CD0F81C588A
:1048B000012E17D045EA0343C0F81C3800EB421024
:1048C000D0F8002B12040BD4D0F8002B8B89097977
:1048D000C3F30A031A4344EA81410A43C0F8002B98
:1048E000002070BD9BB21D43C0F81C5800EB421065
:1048F000D0F800391B04F3D4D0F800398D89097938
:10490000C5F30A0589042B4341EA82510B43234333
:10491000C0F80039E4E7000000800010D0F800196A
:104920006FF30A01C0F80019D0F8041841F480713F
:10493000C0F804180020704770B5044606990A9E16
:10494000049D0D98012916D0E06840F04000E06019
:10495000204600F02BF8A16B1EB321F48031A16337
:10496000012D07D1A16841F00601A160A16841F0C5
:104970002001A16070BDA16B21F48031A163E168C9
:10498000094A1140E160E16821F44011E160012829
:1049900003D1E06840F48010E060204600F006F8A3
:1049A000DEE741F48031DAE7BFFFBDFF08B5002242
:1049B0000D490092009B5B1C00938B420CD803694D
:1049C000002BF7DA0092026942F001020261009ABC
:1049D000521C00928A4201D9032008BD0269D20705
:1049E000F5D1002008BD0000400D030030B54C7823
:1049F0000A78012300EB4212012C2CD0D2F8004B94
:104A0000002C0BDAD2F8004B44F00064C2F8004BE3
:104A1000D2F8004B44F08044C2F8004BD0F83C5828
:104A20000C7804F00F0403FA04F425EA0444C0F8F7
:104A30003C48D0F81C48097801F00F018B4024EA6B
:104A40000341C0F81C18D2F8000B19490840C2F8FD
:104A5000000B002030BDD2F80049002C0BDAD2F850
:104A6000004944F00064C2F80049D2F8004944F01B
:104A70008044C2F80049D0F83C480D7805F00F0595
:104A800003FA05F5ADB2AC43C0F83C48D0F81C4879
:104A9000097801F00F018B4099B28C43C0F81C4893
:104AA000D2F8000903490840C2F80009D1E7000024
:104AB0000078F3EF007833ECD0F8001E21F003010A
:104AC000C0F8001ED0F8041821F00201C0F8041844
:104AD00000207047D0F8001E21F00301C0F8001E2E
:104AE000D0F8041841F00201C0F804180020704703
:104AF0002DE9F04F00250E460446DDF82CC0DDF808
:104B000024B0109F2846294604EB8002C2F8041105
:104B1000401C0F28F8D32046C7B1806B20F4001248
:104B2000A263A06B40F40022A26308468846C4F842
:104B3000000ED4F800182046C4F80018BCF1010F8C
:104B400016D0D0F8001841F0030116E0D0F80408A0
:104B500040F00202C4F80428A06B40F40012A263E3
:104B6000A06B20F40022A263A06B20F48022DBE77C
:104B7000D0F800180BB141F00101C0F80018102165
:104B800000F0EEFA00B10125204600F0CBFA00B1AA
:104B900001254046C4F81088C4F81488C4F81C885D
:104BA00000214FF000694FF0904A4FF67F3314E038
:104BB00004EB4112D2F800C9BCF1000F06DA11B1C2
:104BC000C2F800A904E0C4F8009901E0C2F80009A5
:104BD000C2F81009C2F80839491C8E42E8D80021F1
:104BE00015E000BF04EB4112D2F800CBBCF1000F7E
:104BF00006DA11B1C2F800AB04E0C4F8009B01E092
:104C0000C2F8000BC2F8100BC2F8083B491C8E42D8
:104C1000E8D8D4F8101821F48072C4F81028A061E4
:104C20006FF080406061BBF1000F03D1A06940F0DC
:104C30001000A061A06909490843A0610C9818B14F
:104C4000A06940F00800A061012F03D1A0690449C8
:104C50000843A0612846BDE8F08F000000383C8082
:104C600004000040816821F001018160002070474C
:104C700070B50D784E78444CEBB200EB4313012E27
:104C800021D0D3F8100B6FF31200C3F8100BD3F838
:104C9000100B2040C3F8100B886908B1C868886100
:104CA000C868C861D3F8100B40F40020C3F8100B9B
:104CB000D3F8100BCC69C4F312042043C3F8100BD3
:104CC000012A55D058E08E69002ED3F8106932D0F1
:104CD0006FF31206C3F81069D3F810692640C3F8C1
:104CE00010698E69CC68A64200D98C61D3F810494E
:104CF00044F40024C3F81049D3F810498E69C6F370
:104D000012063443C3F81049012A22D000EB4512A1
:104D1000D2F8003943F00443C2F800398A6932B34B
:104D2000D0F83428097801F00F03012199400A4393
:104D3000C0F8342826E02640C3F81069D3F810499B
:104D400044F40024C3F81049D3F810496FF3120457
:104D5000D8E7496919B100EB4512C2F8141900EB04
:104D60004510D0F8001941F00441C0F8001909E0DD
:104D7000086908B1C3F8140BD3F8000B40F00440E5
:104D8000C3F8000B002070BDFFFF07E010B5036CF7
:104D9000134CA34203D9D0F8003B002B1EDB0023A9
:104DA000C0F8103BD0F8103B43F40023C0F8103B90
:104DB000D0F8103B43F01803C0F8103BD0F8103B7C
:104DC00043F0C043C0F8103B012907D1C0F8142BB1
:104DD000D0F8001B41F08021C0F8001B002010BD5E
:104DE0000A30544F4A780B78012A00EB43100BD05D
:104DF000D0F8002B22F40012C0F8002B0979032907
:104E000014D0022912D017E0D0F8002922F40012A1
:104E1000C0F800290979032901D002290CD1D0F862
:104E2000001941F08051C0F8001905E0D0F8001BCE
:104E300041F08051C0F8001B002070470A784B7881
:104E4000D1B200EB4110012B12D0D0F8001B002989
:104E500006DB2AB1D0F8001B21F08041C0F8001B0E
:104E6000D0F8001B41F40011C0F8001B002070476F
:104E7000D0F80019002906DB2AB1D0F8001921F07A
:104E80008041C0F80019D0F8001941F40011C0F8B1
:104E90000019EBE7F8B50C784F78764DE3B26FF078
:104EA000604600EB4313012F27D0D3F8104B6FF36C
:104EB0001204C3F8104BD3F8104B2C40C3F8104B1E
:104EC0008D69002D75D0CC6825446D1EB5FBF4F5B9
:104ED000ADB26C43CC61D3F8104B06EAC5452C4308
:104EE000C3F8104BD3F8104BCD69C5F312052C4312
:104EF000C3F8104B012A71D0A4E08F691FB3D3F817
:104F000010796FF31207C3F81079D3F810792F4096
:104F1000C3F810798F69CD682F447F1EB7FBF5F574
:104F200006EAC545D3F810693543C3F81059D3F8DC
:104F300010598E69C6F312063543C3F810590D791E
:104F4000012D10D01BE0D3F810692E40C3F8106972
:104F5000D3F8105945F40025C3F81059D3F8105967
:104F60006FF3120509E0D3F8105925F0C045C3F8D6
:104F70001059D3F8105945F00055C3F81059012ABB
:104F800018D000EB4413D3F8004944F00444C3F8AC
:104F900000490C79012C2FD08A6962B3D0F83428EB
:104FA000097801F00F03012199400A43C0F8342821
:104FB0005EE036E04A691AB100EB4413C3F81429E5
:104FC000097901290FD1D0F80818C90500EB44115F
:104FD000D1F8002903D442F0005202E02EE042F062
:104FE0008052C1F8002900EB4410D0F8001941F0BC
:104FF0000441C0F800193BE0D0F80848E405D3F8B4
:10500000004902D444F0005401E044F08054C3F855
:10501000004900920A8B93B20A78096900F0D0F92E
:1050200026E0D3F8104BCD68C5F312052C43C3F826
:10503000104BD3F8104B44F4002459E70A690AB125
:10504000C3F8142B097901290CD1D0F80808C00540
:10505000D3F8000B02D440F0005001E040F0805043
:10506000C3F8000BD3F8000B40F00440C3F8000B6A
:105070000020F8BDFFFF07E038B50022009213467C
:105080004D780A7842F2107400EB4212012D19D0CB
:10509000D2F8005B002D3CDAD2F8005B45F00065E9
:1050A000C2F8005B0A7800EB4212D2F8005B45F0D0
:1050B0008045C2F8005B009A521C0092A24221D99E
:1050C000012326E0D2F80059002D22DAD2F8005947
:1050D00045F00065C2F800590A7800EB4212D2F898
:1050E000005945F08045C2F80059009A521C0092C0
:1050F000A242E5D80A7800EB4212D2F80029002A31
:10510000F3DB06E00A7800EB4212D2F8002B002A0B
:10511000D1DB184638BD816841F001018160002073
:105120007047000008B500220C490092009B5B1CF0
:1051300000938B420AD80369002BF7DA0092102201
:105140000261009A521C00928A4201D9032008BDD4
:105150000269D206F5D4002008BD0000400D03000E
:1051600018B500230D4A0093009C641C00949442DF
:105170000CD80469002CF7DA0093202343EA81114C
:1051800001610099491C0091914201D9032018BD89
:1051900001698906F5D4002018BD0000400D030008
:1051A000D0F8080810F0060004D0022803D0062822
:1051B00001D00F20704702207047406900F00100C5
:1051C0007047D0F81818D0F81C08084080B2704713
:1051D000D0F81818D0F81C080840000C704710B51B
:1051E000D0F81038D0F8342801F00F0400EB41104B
:1051F000E24002F00102D0F8080943EAC21210406E
:1052000010BD00EB4111D1F8081BD0F8140808407C
:105210007047416980690840704730B503460846C9
:10522000940802F00301002203F5805303E01D6897
:1052300040F8045B521CA242F9D300290BD01C6831
:105240000022D50024FA05F3491E521C090400F877
:10525000013B090CF5D130BD70B50446C06800258E
:1052600020F0C040E060012901D079B120E0E06881
:1052700040F00050E0600120FBF72CFC60696D1CE1
:1052800010F0010F10D1322DF5D30DE0E06840F0A1
:105290008040E0600120FBF71DFC60696D1C10F090
:1052A000010F01D0322DF5D3322D01D0002070BD79
:1052B000012070BDD0F8002822F4FE62C0F800285A
:1052C000D0F800284FF4FE6303EA01110A43C0F846
:1052D0000028002070470000022A3ED1264A274BB2
:1052E0000A449A4201D20F2138E0254A254B0A444C
:1052F0009A4201D20E2131E0234A244B0A449A42B9
:1053000001D20D212AE0224A224B0A449A4201D2BC
:105310000C2123E0204A214B0A449A4201D20B215E
:105320001CE01F4A1F4B0A449A4201D20A2115E091
:105330001D4A1E4B0A449A420FD31D4A1D4B0A4474
:105340009A4201D2082109E01B4A11441B4A9142AA
:1053500001D2072102E0062100E00921C26822F4FF
:105360007052C260C2684FF4705303EA81210A434D
:10537000C260002070470000405327FF00350C003A
:10538000401E1BFF40420F0000DC0BFF804F12004D
:10539000808CF9FE20D6130060B6E5FE60E31600AF
:1053A00000D3CEFE40771B00C05BB3FEC09121004E
:1053B00000CA91FE20753800E05459FEE09C41007F
:1053C00010B5029C74B9DB1C9C0800EB0230002372
:1053D00000F5805004E000BF51F8042B02605B1C14
:1053E000A342F9D3002010BDFEE703B401984100A9
:1053F000009850EAC12018BF04204A0D18BF40F0A1
:10540000010040F2FF72B2EB515F08BF40F00200B2
:10541000012808BF052002B070470907090E0028BF
:1054200004DB00F1E02080F80014704700F00F006A
:1054300000F1E02080F8141D70470000000000001B
:105440002DE9F04D2DED040B2DED0E8B96B0DDE921
:105450002550279CDDF890A025F0004624F0004858
:10546000BAF1000F14BF0121002101EB4502FC49F4
:1054700053184A1093422AD3002814BF0123002353
:1054800003EB44030B44F7498B4220D358EA000155
:105490009FEDF59B76D0DFF8D8B35D4503D1BAF127
:1054A000000F05D188E0BAF1000F08BF002100D03D
:1054B000012101EB450111F5001F08D8002814BF98
:1054C0000121002101EB440111F5001F0BD99DEDD5
:1054D000261B9DED240B16B0BDEC0E8B04B0BDE871
:1054E000F04D00F069BE0027002DBCBFE1498845A2
:1054F00021DAE1498845A8BF02271CDAC3451ADC36
:10550000DE4901EB2851142908DDC1F1340220FAEB
:1055100002F101FA02F282420DD108E058B9C1F15C
:10552000140228FA02F101FA02F2424503D101F015
:105530000101C1F1020756EA0A0124D1002C22DA46
:10554000002D18BF022F01D0012F0AD00220FBF737
:105550000AF916B0BDEC0E8B04B0BDE8F04D00F0BA
:1055600013BE0220FBF7FFF800F00EFE51EC100B0B
:1055700001F0E8F841EC100B16B0BDEC0E8B04B056
:10558000BDE8F08D18E09FEDBEAB9FEDBF8B00280E
:1055900071D1B848804522D105F1804010F58010C6
:1055A00008BFBAF1000F07D0B3450ADC002CA8BF32
:1055B0009DED260BE0DA0DE0B0EE490AF0EE690A47
:1055C000DAE7002C06DA9DED260B51EC100B01F00A
:1055D000B9F86FE0AE48784490ED000BCCE7D845C1
:1055E0004DD1002C48DA2EB186423AD1BAF1000FE3
:1055F00042D126E0BAF1000F13D00220FBF7B3F836
:1056000000F0F6FD8DED020B9DED240B8DED000BF2
:1056100010EE900A039961F31E0003909DED020BBA
:10562000AAE78DED02AB9DED240B1AEE901A10EE59
:10563000900A8DED000B61F31E0003909DED020BAF
:105640009AE78DED028B9DED240B18EE901A10EE6B
:10565000900A8DED000B61F31E0003909DED020B8F
:105660008AE709DA9DED240B51EC190B53EC102B52
:1056700001F062F91EE020E09DED240B7CE78642FC
:105680001BDAB4F1804F0DD0A4F10050B0F1FF50FF
:1056900013D1002D11DB9DED240B51EC100B01F00B
:1056A00009F807E09DED240B53EC102B51EC100B87
:1056B00000F0C2BC41EC100B5EE79DED240B51ECF9
:1056C000100B00F0B5FDBAF1000FCDE90E0142D18B
:1056D0009FED710B46B3A6F1E040B0F17F600CD0B6
:1056E0005E4538D1002D00DAA7B3022F0CBF012090
:1056F0004FF0FF3001F078FADCE7002D01DD002CDF
:105700000DDA002D01DD002C1FDB002D16DA002C38
:1057100014DB012F08BF9FED620B3FF42DAFB0EEFD
:105720004A0AF0EE6A0A27E7022F18BF002D0CD0B4
:10573000012F0AD1002DFFF61FAF06E0002DB8BFE4
:10574000002C08DA012F3FF417AFB0EE480AF0EE54
:10575000680A11E71BE0012000EBE57050EA070141
:1057600015D0791EB0EE498AF0EE698A084308BF69
:105770009FED4D8B4E480025804570DD4D494E48CC
:10578000884514DDB0420DDB002C19DB2FE0012031
:10579000FAF7E9FF16B0BDEC0E8B04B0BDE8F04D92
:1057A00000F016BDB34502DC002C09DC1FE0864288
:1057B00002DA002C1BDA03E05E452BDD002C16DD3F
:1057C0000220FAF7D0FF00F013FD8DED020B53EC31
:1057D0001A2B51EC180B01F06DFACDE90001039979
:1057E000019861F31E0003909DED020BC4E60220B8
:1057F000FAF7B9FF00F00CFD10EE901A18EE900ABF
:105800008DED020B8DED008B61F31E0003909DED7D
:10581000020BB1E69DED0E0B53EC192B51EC100B66
:1058200001F054FC9FED260BCDE9080153EC102B41
:105830009DED080B51EC100B01F03CFA9FED221B83
:1058400053EC112B01F06AFB9DED081B53EC112B5F
:1058500001F030FA9FED1E1B53EC112B3CE08CE065
:10586000FFFF1F00FFFF0F00000000000000F03FDF
:105870000000F03F0000F07F0000404301FCFFFF0C
:10588000000000000000F07F0000000000000000A9
:105890004E1F00000000000000000000000000801B
:1058A000000000000000F0FF000000000000F0BF5A
:1058B0000000E0410000F043FFFFEF3F0000000068
:1058C000000000000000D03F555555555555D53FB7
:1058D000000000000000E03F01F020FB9DED080B00
:1058E00041EC1A0B53EC102B51EC100B01F0E2F9C8
:1058F00053EC1A2B01F0DEF941EC1A0B9FEDFE0B75
:1059000053EC102B9DED080B51EC100B01F0D2F96C
:1059100041EC1B0B9FEDFA0B51EC1A0B53EC102BC7
:1059200001F0C8F941EC1A0B9FEDF70B53EC102B6B
:105930009DED080B51EC100B01F0BCF953EC1A2B48
:1059400001F0C4FB41EC1A0B51EC1B0B53EC1A2B6E
:1059500000F036FF0690CDE906519DED060B53ECA5
:105960001B2B51EC100B01F0B1FB53EC1A2B01F087
:10597000D5FA41EC100B00F0A1B90020B6F5801F5C
:105980000EDA9FEDE30B53EC102B9DED0E0B51EC5B
:10599000100B01F08FF9CDE90E016FF034000E46C7
:1059A00000EB2650A0F2FF37C6F31300DA4940F0AF
:1059B0007F6646F040568842D8BF002408DDD749AC
:1059C0008142C8BF012403DC0024A6F580167F1C99
:1059D000D348784400EBC4000F9690ED00CB9DEDCA
:1059E0000E0B53EC1C2B51EC100B01F06FFB9DEDDB
:1059F0000E0B41EC1B0B53EC1C2B51EC100B00F06D
:105A0000DFFE41EC100B51EC190B53EC102B00F0A6
:105A100093FF41EC1D0B51EC1B0B53EC1D2B01F0C4
:105A200049F941EC1A0BBF488DED10AB7844109545
:105A300090ED000B4FF0005040EA660000EB844010
:105A40008DED080B00F5002009909DED080B53EC3F
:105A50001C2B51EC100B01F039FB9DED0E1B53EC90
:105A6000112B01F05BFA41EC100B53EC102B9DED68
:105A7000100B51EC100B01F01DF99DED080B41ECE2
:105A80001C0B53EC102B9DED100B51EC100B01F087
:105A900011F953EC1B2B01F041FA53EC1C2B01F0D4
:105AA00015FB53EC1D2B01F005F941EC1C0B53ECDD
:105AB0001A2B51EC1A0B01F0FDF841EC1B0B9A4824
:105AC0000621B0EE4B0AF0EE6B0A784400F0E0FAE3
:105AD000B0EE401AF0EE601AB0EE41DAF0EE61DAA4
